{
  "_format": "hh-sol-artifact-1",
  "contractName": "LikePortal",
  "sourceName": "contracts/LikePortal.sol",
  "abi": [
    {
      "inputs": [],
      "stateMutability": "payable",
      "type": "constructor"
    },
    {
      "anonymous": false,
      "inputs": [
        {
          "components": [
            {
              "internalType": "uint256",
              "name": "totalPosts",
              "type": "uint256"
            },
            {
              "internalType": "bool",
              "name": "hadPayoff",
              "type": "bool"
            }
          ],
          "indexed": false,
          "internalType": "struct LikePortal.Author",
          "name": "author",
          "type": "tuple"
        }
      ],
      "name": "newAuthor",
      "type": "event"
    },
    {
      "anonymous": false,
      "inputs": [
        {
          "components": [
            {
              "internalType": "uint256",
              "name": "postId",
              "type": "uint256"
            },
            {
              "internalType": "address",
              "name": "author",
              "type": "address"
            },
            {
              "internalType": "string",
              "name": "content",
              "type": "string"
            },
            {
              "internalType": "uint256",
              "name": "lastUpdated",
              "type": "uint256"
            },
            {
              "internalType": "address[]",
              "name": "allLovers",
              "type": "address[]"
            }
          ],
          "indexed": false,
          "internalType": "struct LikePortal.Post[]",
          "name": "allPost",
          "type": "tuple[]"
        }
      ],
      "name": "newPosts",
      "type": "event"
    },
    {
      "inputs": [
        {
          "internalType": "string",
          "name": "content",
          "type": "string"
        }
      ],
      "name": "createPost",
      "outputs": [],
      "stateMutability": "nonpayable",
      "type": "function"
    },
    {
      "inputs": [
        {
          "internalType": "uint256",
          "name": "postId",
          "type": "uint256"
        }
      ],
      "name": "deletePost",
      "outputs": [],
      "stateMutability": "nonpayable",
      "type": "function"
    },
    {
      "inputs": [],
      "name": "getAllPost",
      "outputs": [
        {
          "components": [
            {
              "internalType": "uint256",
              "name": "postId",
              "type": "uint256"
            },
            {
              "internalType": "address",
              "name": "author",
              "type": "address"
            },
            {
              "internalType": "string",
              "name": "content",
              "type": "string"
            },
            {
              "internalType": "uint256",
              "name": "lastUpdated",
              "type": "uint256"
            },
            {
              "internalType": "address[]",
              "name": "allLovers",
              "type": "address[]"
            }
          ],
          "internalType": "struct LikePortal.Post[]",
          "name": "",
          "type": "tuple[]"
        }
      ],
      "stateMutability": "view",
      "type": "function"
    },
    {
      "inputs": [
        {
          "internalType": "address",
          "name": "account",
          "type": "address"
        }
      ],
      "name": "getAuthor",
      "outputs": [
        {
          "components": [
            {
              "internalType": "uint256",
              "name": "totalPosts",
              "type": "uint256"
            },
            {
              "internalType": "bool",
              "name": "hadPayoff",
              "type": "bool"
            }
          ],
          "internalType": "struct LikePortal.Author",
          "name": "",
          "type": "tuple"
        }
      ],
      "stateMutability": "view",
      "type": "function"
    },
    {
      "inputs": [
        {
          "internalType": "uint256",
          "name": "postId",
          "type": "uint256"
        }
      ],
      "name": "like",
      "outputs": [],
      "stateMutability": "nonpayable",
      "type": "function"
    },
    {
      "inputs": [],
      "name": "payoff",
      "outputs": [],
      "stateMutability": "nonpayable",
      "type": "function"
    },
    {
      "inputs": [
        {
          "internalType": "uint256",
          "name": "postId",
          "type": "uint256"
        },
        {
          "internalType": "string",
          "name": "content",
          "type": "string"
        }
      ],
      "name": "updatePost",
      "outputs": [],
      "stateMutability": "nonpayable",
      "type": "function"
    }
  ],
  "bytecode": "0x608060405262000033604051806060016040528060258152602001620027fe602591396200003960201b62000f931760201c565b620001bb565b620000d98160405160240162000050919062000197565b6040516020818303038152906040527f41304fac000000000000000000000000000000000000000000000000000000007bffffffffffffffffffffffffffffffffffffffffffffffffffffffff19166020820180517bffffffffffffffffffffffffffffffffffffffffffffffffffffffff8381831617835250505050620000dc60201b60201c565b50565b60006a636f6e736f6c652e6c6f679050600080835160208501845afa505050565b600081519050919050565b600082825260208201905092915050565b60005b83811015620001395780820151818401526020810190506200011c565b60008484015250505050565b6000601f19601f8301169050919050565b60006200016382620000fd565b6200016f818562000108565b93506200018181856020860162000119565b6200018c8162000145565b840191505092915050565b60006020820190508181036000830152620001b3818462000156565b905092915050565b61263380620001cb6000396000f3fe608060405234801561001057600080fd5b506004361061007d5760003560e01c8063b406db9b1161005b578063b406db9b146100d8578063c7303c61146100f4578063da7d9d1014610110578063e82935da1461012e5761007d565b8063094cd5ee146100825780630ab300931461009e57806395fcd836146100ce575b600080fd5b61009c6004803603810190610097919061141b565b61014a565b005b6100b860048036038101906100b391906114a6565b610667565b6040516100c5919061152c565b60405180910390f35b6100d66106e5565b005b6100f260048036038101906100ed91906115ac565b6109c7565b005b61010e6004803603810190610109919061160c565b610ad9565b005b610118610d41565b60405161012591906118e6565b60405180910390f35b6101486004803603810190610143919061141b565b610f2a565b005b600080828154811061015f5761015e611908565b5b90600052602060002090600502016040518060a0016040529081600082015481526020016001820160009054906101000a900473ffffffffffffffffffffffffffffffffffffffff1673ffffffffffffffffffffffffffffffffffffffff1673ffffffffffffffffffffffffffffffffffffffff1681526020016002820180546101e890611966565b80601f016020809104026020016040519081016040528092919081815260200182805461021490611966565b80156102615780601f1061023657610100808354040283529160200191610261565b820191906000526020600020905b81548152906001019060200180831161024457829003601f168201915b5050505050815260200160038201548152602001600482018054806020026020016040519081016040528092919081815260200182805480156102f957602002820191906000526020600020905b8160009054906101000a900473ffffffffffffffffffffffffffffffffffffffff1673ffffffffffffffffffffffffffffffffffffffff16815260200190600101908083116102af575b5050505050815250509050806020015173ffffffffffffffffffffffffffffffffffffffff163373ffffffffffffffffffffffffffffffffffffffff1614610376576040517f08c379a000000000000000000000000000000000000000000000000000000000815260040161036d906119f4565b60405180910390fd5b60008290505b6000805490508110156104da5760008054905060018261039c9190611a43565b10156104c75760006001826103b19190611a43565b815481106103c2576103c1611908565b5b9060005260206000209060050201600082815481106103e4576103e3611908565b5b9060005260206000209060050201600082015481600001556001820160009054906101000a900473ffffffffffffffffffffffffffffffffffffffff168160010160006101000a81548173ffffffffffffffffffffffffffffffffffffffff021916908373ffffffffffffffffffffffffffffffffffffffff160217905550600282018160020190816104779190611c68565b50600382015481600301556004820181600401908054610498929190611265565b5090505080600082815481106104b1576104b0611908565b5b9060005260206000209060050201600001819055505b80806104d290611d50565b91505061037c565b5060008054806104ed576104ec611d98565b5b60019003818190600052602060002090600502016000808201600090556001820160006101000a81549073ffffffffffffffffffffffffffffffffffffffff021916905560028201600061054191906112b7565b600382016000905560048201600061055991906112f7565b5050905560018060003373ffffffffffffffffffffffffffffffffffffffff1673ffffffffffffffffffffffffffffffffffffffff16815260200190815260200160002060000160008282546105af9190611dc7565b925050819055507f630232c34a9c48ba6c17e8f6b4a03976ee08cc25ba0611d44c43209a1088dd2f60006040516105e691906120e2565b60405180910390a17ff93bc4e651c15d0eb0dc8a7f48ee9fabe92d8fb1ba5ef9f938faae4f2076302e600160003373ffffffffffffffffffffffffffffffffffffffff1673ffffffffffffffffffffffffffffffffffffffff16815260200190815260200160002060405161065b9190612172565b60405180910390a15050565b61066f611318565b600160008373ffffffffffffffffffffffffffffffffffffffff1673ffffffffffffffffffffffffffffffffffffffff168152602001908152602001600020604051806040016040529081600082015481526020016001820160009054906101000a900460ff1615151515815250509050919050565b6002600160003373ffffffffffffffffffffffffffffffffffffffff1673ffffffffffffffffffffffffffffffffffffffff168152602001908152602001600020600001541161076a576040517f08c379a0000000000000000000000000000000000000000000000000000000008152600401610761906121d9565b60405180910390fd5b600160003373ffffffffffffffffffffffffffffffffffffffff1673ffffffffffffffffffffffffffffffffffffffff16815260200190815260200160002060010160009054906101000a900460ff16156107fa576040517f08c379a00000000000000000000000000000000000000000000000000000000081526004016107f19061226b565b60405180910390fd5b6000655af3107a4000905047811115610848576040517f08c379a000000000000000000000000000000000000000000000000000000000815260040161083f906122fd565b60405180910390fd5b60003373ffffffffffffffffffffffffffffffffffffffff168260405161086e9061234e565b60006040518083038185875af1925050503d80600081146108ab576040519150601f19603f3d011682016040523d82523d6000602084013e6108b0565b606091505b50509050806108f4576040517f08c379a00000000000000000000000000000000000000000000000000000000081526004016108eb906123d5565b60405180910390fd5b60018060003373ffffffffffffffffffffffffffffffffffffffff1673ffffffffffffffffffffffffffffffffffffffff16815260200190815260200160002060010160006101000a81548160ff0219169083151502179055507ff93bc4e651c15d0eb0dc8a7f48ee9fabe92d8fb1ba5ef9f938faae4f2076302e600160003373ffffffffffffffffffffffffffffffffffffffff1673ffffffffffffffffffffffffffffffffffffffff1681526020019081526020016000206040516109bb9190612172565b60405180910390a15050565b60008084815481106109dc576109db611908565b5b906000526020600020906005020190508060010160009054906101000a900473ffffffffffffffffffffffffffffffffffffffff1673ffffffffffffffffffffffffffffffffffffffff163373ffffffffffffffffffffffffffffffffffffffff1614610a7e576040517f08c379a0000000000000000000000000000000000000000000000000000000008152600401610a75906119f4565b60405180910390fd5b8282826002019182610a91929190612400565b504281600301819055507f630232c34a9c48ba6c17e8f6b4a03976ee08cc25ba0611d44c43209a1088dd2f6000604051610acb91906120e2565b60405180910390a150505050565b60008060008054905014610af257600080549050610af5565b60005b9050606060006040518060a001604052808481526020013373ffffffffffffffffffffffffffffffffffffffff16815260200186868080601f016020809104026020016040519081016040528093929190818152602001838380828437600081840152601f19601f8201169050808301925050505050505081526020014281526020018381525090806001815401808255809150506001900390600052602060002090600502016000909190919091506000820151816000015560208201518160010160006101000a81548173ffffffffffffffffffffffffffffffffffffffff021916908373ffffffffffffffffffffffffffffffffffffffff1602179055506040820151816002019081610c0b91906124d0565b50606082015181600301556080820151816004019080519060200190610c32929190611334565b50505060018060003373ffffffffffffffffffffffffffffffffffffffff1673ffffffffffffffffffffffffffffffffffffffff1681526020019081526020016000206000016000828254610c879190611a43565b925050819055507f630232c34a9c48ba6c17e8f6b4a03976ee08cc25ba0611d44c43209a1088dd2f6000604051610cbe91906120e2565b60405180910390a17ff93bc4e651c15d0eb0dc8a7f48ee9fabe92d8fb1ba5ef9f938faae4f2076302e600160003373ffffffffffffffffffffffffffffffffffffffff1673ffffffffffffffffffffffffffffffffffffffff168152602001908152602001600020604051610d339190612172565b60405180910390a150505050565b60606000805480602002602001604051908101604052809291908181526020016000905b82821015610f2157838290600052602060002090600502016040518060a0016040529081600082015481526020016001820160009054906101000a900473ffffffffffffffffffffffffffffffffffffffff1673ffffffffffffffffffffffffffffffffffffffff1673ffffffffffffffffffffffffffffffffffffffff168152602001600282018054610df890611966565b80601f0160208091040260200160405190810160405280929190818152602001828054610e2490611966565b8015610e715780601f10610e4657610100808354040283529160200191610e71565b820191906000526020600020905b815481529060010190602001808311610e5457829003601f168201915b505050505081526020016003820154815260200160048201805480602002602001604051908101604052809291908181526020018280548015610f0957602002820191906000526020600020905b8160009054906101000a900473ffffffffffffffffffffffffffffffffffffffff1673ffffffffffffffffffffffffffffffffffffffff1681526020019060010190808311610ebf575b50505050508152505081526020019060010190610d65565b50505050905090565b610f5860008281548110610f4157610f40611908565b5b90600052602060002090600502016004013361102c565b7f630232c34a9c48ba6c17e8f6b4a03976ee08cc25ba0611d44c43209a1088dd2f6000604051610f8891906120e2565b60405180910390a150565b61102981604051602401610fa791906125db565b6040516020818303038152906040527f41304fac000000000000000000000000000000000000000000000000000000007bffffffffffffffffffffffffffffffffffffffffffffffffffffffff19166020820180517bffffffffffffffffffffffffffffffffffffffffffffffffffffffff8381831617835250505050611244565b50565b6000805b838054905081101561118b578273ffffffffffffffffffffffffffffffffffffffff1684828154811061106657611065611908565b5b9060005260206000200160009054906101000a900473ffffffffffffffffffffffffffffffffffffffff1673ffffffffffffffffffffffffffffffffffffffff16036110b157600191505b8180156110cd575083805490506001826110cb9190611a43565b105b1561117857836001826110e09190611a43565b815481106110f1576110f0611908565b5b9060005260206000200160009054906101000a900473ffffffffffffffffffffffffffffffffffffffff1684828154811061112f5761112e611908565b5b9060005260206000200160006101000a81548173ffffffffffffffffffffffffffffffffffffffff021916908373ffffffffffffffffffffffffffffffffffffffff1602179055505b808061118390611d50565b915050611030565b50806111f85782829080600181540180825580915050600190039060005260206000200160009091909190916101000a81548173ffffffffffffffffffffffffffffffffffffffff021916908373ffffffffffffffffffffffffffffffffffffffff16021790555061123f565b8280548061120957611208611d98565b5b6001900381819060005260206000200160006101000a81549073ffffffffffffffffffffffffffffffffffffffff021916905590555b505050565b60006a636f6e736f6c652e6c6f679050600080835160208501845afa505050565b8280548282559060005260206000209081019282156112a65760005260206000209182015b828111156112a557825482559160010191906001019061128a565b5b5090506112b391906113be565b5090565b5080546112c390611966565b6000825580601f106112d557506112f4565b601f0160209004906000526020600020908101906112f391906113be565b5b50565b508054600082559060005260206000209081019061131591906113be565b50565b6040518060400160405280600081526020016000151581525090565b8280548282559060005260206000209081019282156113ad579160200282015b828111156113ac5782518260006101000a81548173ffffffffffffffffffffffffffffffffffffffff021916908373ffffffffffffffffffffffffffffffffffffffff16021790555091602001919060010190611354565b5b5090506113ba91906113be565b5090565b5b808211156113d75760008160009055506001016113bf565b5090565b600080fd5b600080fd5b6000819050919050565b6113f8816113e5565b811461140357600080fd5b50565b600081359050611415816113ef565b92915050565b600060208284031215611431576114306113db565b5b600061143f84828501611406565b91505092915050565b600073ffffffffffffffffffffffffffffffffffffffff82169050919050565b600061147382611448565b9050919050565b61148381611468565b811461148e57600080fd5b50565b6000813590506114a08161147a565b92915050565b6000602082840312156114bc576114bb6113db565b5b60006114ca84828501611491565b91505092915050565b6114dc816113e5565b82525050565b60008115159050919050565b6114f7816114e2565b82525050565b60408201600082015161151360008501826114d3565b50602082015161152660208501826114ee565b50505050565b600060408201905061154160008301846114fd565b92915050565b600080fd5b600080fd5b600080fd5b60008083601f84011261156c5761156b611547565b5b8235905067ffffffffffffffff8111156115895761158861154c565b5b6020830191508360018202830111156115a5576115a4611551565b5b9250929050565b6000806000604084860312156115c5576115c46113db565b5b60006115d386828701611406565b935050602084013567ffffffffffffffff8111156115f4576115f36113e0565b5b61160086828701611556565b92509250509250925092565b60008060208385031215611623576116226113db565b5b600083013567ffffffffffffffff811115611641576116406113e0565b5b61164d85828601611556565b92509250509250929050565b600081519050919050565b600082825260208201905092915050565b6000819050602082019050919050565b61168e81611468565b82525050565b600081519050919050565b600082825260208201905092915050565b60005b838110156116ce5780820151818401526020810190506116b3565b60008484015250505050565b6000601f19601f8301169050919050565b60006116f682611694565b611700818561169f565b93506117108185602086016116b0565b611719816116da565b840191505092915050565b600081519050919050565b600082825260208201905092915050565b6000819050602082019050919050565b600061175c8383611685565b60208301905092915050565b6000602082019050919050565b600061178082611724565b61178a818561172f565b935061179583611740565b8060005b838110156117c65781516117ad8882611750565b97506117b883611768565b925050600181019050611799565b5085935050505092915050565b600060a0830160008301516117eb60008601826114d3565b5060208301516117fe6020860182611685565b506040830151848203604086015261181682826116eb565b915050606083015161182b60608601826114d3565b50608083015184820360808601526118438282611775565b9150508091505092915050565b600061185c83836117d3565b905092915050565b6000602082019050919050565b600061187c82611659565b6118868185611664565b93508360208202850161189885611675565b8060005b858110156118d457848403895281516118b58582611850565b94506118c083611864565b925060208a0199505060018101905061189c565b50829750879550505050505092915050565b600060208201905081810360008301526119008184611871565b905092915050565b7f4e487b7100000000000000000000000000000000000000000000000000000000600052603260045260246000fd5b7f4e487b7100000000000000000000000000000000000000000000000000000000600052602260045260246000fd5b6000600282049050600182168061197e57607f821691505b60208210810361199157611990611937565b5b50919050565b600082825260208201905092915050565b7f556e617574686f72697a65640000000000000000000000000000000000000000600082015250565b60006119de600c83611997565b91506119e9826119a8565b602082019050919050565b60006020820190508181036000830152611a0d816119d1565b9050919050565b7f4e487b7100000000000000000000000000000000000000000000000000000000600052601160045260246000fd5b6000611a4e826113e5565b9150611a59836113e5565b9250828201905080821115611a7157611a70611a14565b5b92915050565b600081549050611a8681611966565b9050919050565b7f4e487b7100000000000000000000000000000000000000000000000000000000600052604160045260246000fd5b60008190508160005260206000209050919050565b60006020601f8301049050919050565b600082821b905092915050565b600060088302611b1e7fffffffffffffffffffffffffffffffffffffffffffffffffffffffffffffffff82611ae1565b611b288683611ae1565b95508019841693508086168417925050509392505050565b6000819050919050565b6000611b65611b60611b5b846113e5565b611b40565b6113e5565b9050919050565b6000819050919050565b611b7f83611b4a565b611b93611b8b82611b6c565b848454611aee565b825550505050565b600090565b611ba8611b9b565b611bb3818484611b76565b505050565b5b81811015611bd757611bcc600082611ba0565b600181019050611bb9565b5050565b601f821115611c1c57611bed81611abc565b611bf684611ad1565b81016020851015611c05578190505b611c19611c1185611ad1565b830182611bb8565b50505b505050565b600082821c905092915050565b6000611c3f60001984600802611c21565b1980831691505092915050565b6000611c588383611c2e565b9150826002028217905092915050565b818103611c76575050611d4e565b611c7f82611a77565b67ffffffffffffffff811115611c9857611c97611a8d565b5b611ca28254611966565b611cad828285611bdb565b6000601f831160018114611cdc5760008415611cca578287015490505b611cd48582611c4c565b865550611d47565b601f198416611cea87611abc565b9650611cf586611abc565b60005b82811015611d1d57848901548255600182019150600185019450602081019050611cf8565b86831015611d3a5784890154611d36601f891682611c2e565b8355505b6001600288020188555050505b5050505050505b565b6000611d5b826113e5565b91507fffffffffffffffffffffffffffffffffffffffffffffffffffffffffffffffff8203611d8d57611d8c611a14565b5b600182019050919050565b7f4e487b7100000000000000000000000000000000000000000000000000000000600052603160045260246000fd5b6000611dd2826113e5565b9150611ddd836113e5565b9250828203905081811115611df557611df4611a14565b5b92915050565b600081549050919050565b60008190508160005260206000209050919050565b60008160001c9050919050565b6000819050919050565b6000611e45611e4083611e1b565b611e28565b9050919050565b600073ffffffffffffffffffffffffffffffffffffffff82169050919050565b6000611e7f611e7a83611e1b565b611e4c565b9050919050565b60008154611e9381611966565b611e9d818661169f565b94506001821660008114611eb85760018114611ece57611f01565b60ff198316865281151560200286019350611f01565b611ed785611abc565b60005b83811015611ef957815481890152600182019150602081019050611eda565b808801955050505b50505092915050565b600081549050919050565b60008190508160005260206000209050919050565b6000611f368254611e6c565b9050919050565b6000600182019050919050565b6000611f5582611f0a565b611f5f818561172f565b9350611f6a83611f15565b8060005b83811015611fa257611f7f82611f2a565b611f898882611750565b9750611f9483611f3d565b925050600181019050611f6e565b5085935050505092915050565b600060a083016000808401549050611fc681611e32565b611fd360008701826114d3565b5060018401549050611fe481611e6c565b611ff16020870182611685565b506002840185830360408701526120088382611e86565b9250506003840154905061201b81611e32565b61202860608701826114d3565b5060048401858303608087015261203f8382611f4a565b925050819250505092915050565b60006120598383611faf565b905092915050565b6000600582019050919050565b600061207982611dfb565b6120838185611664565b93508360208202850161209585611e06565b8060005b858110156120d0578484038952816120b1858261204d565b94506120bc83612061565b925060208a01995050600181019050612099565b50829750879550505050505092915050565b600060208201905081810360008301526120fc818461206e565b905092915050565b600060ff82169050919050565b600061212461211f83611e1b565b612104565b9050919050565b60408201600080830154905061214081611e32565b61214d60008601826114d3565b506001830154905061215e81612111565b61216b60208601826114ee565b5050505050565b6000604082019050612187600083018461212b565b92915050565b7f556e61626c6520746f206561726e207468652070726963652079657421000000600082015250565b60006121c3601d83611997565b91506121ce8261218d565b602082019050919050565b600060208201905081810360008301526121f2816121b6565b9050919050565b7f556e61626c6520746f206561726e20746865207072696365206d6f726520746860008201527f616e206f6e652074696d65210000000000000000000000000000000000000000602082015250565b6000612255602c83611997565b9150612260826121f9565b604082019050919050565b6000602082019050818103600083015261228481612248565b9050919050565b7f4574686572732068617665206265656e206c61636b206f66662063757272656e60008201527f746c792e00000000000000000000000000000000000000000000000000000000602082015250565b60006122e7602483611997565b91506122f28261228b565b604082019050919050565b60006020820190508181036000830152612316816122da565b9050919050565b600081905092915050565b50565b600061233860008361231d565b915061234382612328565b600082019050919050565b60006123598261232b565b9150819050919050565b7f4661696c656420746f207769746864726177206d6f6e65792066726f6d20636f60008201527f6e74726163742e00000000000000000000000000000000000000000000000000602082015250565b60006123bf602783611997565b91506123ca82612363565b604082019050919050565b600060208201905081810360008301526123ee816123b2565b9050919050565b600082905092915050565b61240a83836123f5565b67ffffffffffffffff81111561242357612422611a8d565b5b61242d8254611966565b612438828285611bdb565b6000601f8311600181146124675760008415612455578287013590505b61245f8582611c4c565b8655506124c7565b601f19841661247586611abc565b60005b8281101561249d57848901358255600182019150602085019450602081019050612478565b868310156124ba57848901356124b6601f891682611c2e565b8355505b6001600288020188555050505b50505050505050565b6124d982611694565b67ffffffffffffffff8111156124f2576124f1611a8d565b5b6124fc8254611966565b612507828285611bdb565b600060209050601f83116001811461253a5760008415612528578287015190505b6125328582611c4c565b86555061259a565b601f19841661254886611abc565b60005b828110156125705784890151825560018201915060208501945060208101905061254b565b8683101561258d5784890151612589601f891682611c2e565b8355505b6001600288020188555050505b505050505050565b60006125ad82611694565b6125b78185611997565b93506125c78185602086016116b0565b6125d0816116da565b840191505092915050565b600060208201905081810360008301526125f581846125a2565b90509291505056fea2646970667358221220c936e5b297cde3db1c8f154858b1592c78f4bbad9e824ecffcfeb03761b36e6b64736f6c63430008120033596f20796f2c204920616d206120636f6e747261637420616e64204920616d20736d617274",
  "linkReferences": {},
  "deployedLinkReferences": {}
}